{
  "contractName": "Cat",
  "abi": [
    {
      "constant": true,
      "inputs": [],
      "name": "owner",
      "outputs": [
        {
          "name": "",
          "type": "address"
        }
      ],
      "payable": false,
      "stateMutability": "view",
      "type": "function"
    },
    {
      "constant": true,
      "inputs": [],
      "name": "attributes",
      "outputs": [
        {
          "name": "height",
          "type": "uint256"
        },
        {
          "name": "weight",
          "type": "uint256"
        },
        {
          "name": "age",
          "type": "uint256"
        },
        {
          "name": "energypoint",
          "type": "uint256"
        },
        {
          "name": "emotion",
          "type": "uint8"
        },
        {
          "name": "color",
          "type": "uint8"
        }
      ],
      "payable": false,
      "stateMutability": "view",
      "type": "function"
    },
    {
      "constant": true,
      "inputs": [],
      "name": "catName",
      "outputs": [
        {
          "name": "",
          "type": "string"
        }
      ],
      "payable": false,
      "stateMutability": "view",
      "type": "function"
    },
    {
      "inputs": [
        {
          "name": "_name",
          "type": "string"
        }
      ],
      "payable": false,
      "stateMutability": "nonpayable",
      "type": "constructor"
    },
    {
      "constant": false,
      "inputs": [],
      "name": "BuytheCat",
      "outputs": [],
      "payable": false,
      "stateMutability": "nonpayable",
      "type": "function"
    },
    {
      "constant": true,
      "inputs": [],
      "name": "returnName",
      "outputs": [
        {
          "name": "",
          "type": "string"
        }
      ],
      "payable": false,
      "stateMutability": "view",
      "type": "function"
    },
    {
      "constant": true,
      "inputs": [],
      "name": "returnHeight",
      "outputs": [
        {
          "name": "",
          "type": "uint256"
        }
      ],
      "payable": false,
      "stateMutability": "view",
      "type": "function"
    },
    {
      "constant": true,
      "inputs": [],
      "name": "returnWeight",
      "outputs": [
        {
          "name": "",
          "type": "uint256"
        }
      ],
      "payable": false,
      "stateMutability": "view",
      "type": "function"
    },
    {
      "constant": true,
      "inputs": [],
      "name": "returnAge",
      "outputs": [
        {
          "name": "",
          "type": "uint256"
        }
      ],
      "payable": false,
      "stateMutability": "view",
      "type": "function"
    },
    {
      "constant": true,
      "inputs": [],
      "name": "returnEnergypoint",
      "outputs": [
        {
          "name": "",
          "type": "uint256"
        }
      ],
      "payable": false,
      "stateMutability": "view",
      "type": "function"
    },
    {
      "constant": true,
      "inputs": [],
      "name": "returnEmotion",
      "outputs": [
        {
          "name": "",
          "type": "string"
        }
      ],
      "payable": false,
      "stateMutability": "view",
      "type": "function"
    },
    {
      "constant": true,
      "inputs": [],
      "name": "returnColor",
      "outputs": [
        {
          "name": "",
          "type": "string"
        }
      ],
      "payable": false,
      "stateMutability": "view",
      "type": "function"
    },
    {
      "constant": false,
      "inputs": [
        {
          "name": "_emotion",
          "type": "uint8"
        }
      ],
      "name": "changeEmotion",
      "outputs": [],
      "payable": false,
      "stateMutability": "nonpayable",
      "type": "function"
    },
    {
      "constant": false,
      "inputs": [],
      "name": "run",
      "outputs": [],
      "payable": false,
      "stateMutability": "nonpayable",
      "type": "function"
    },
    {
      "constant": false,
      "inputs": [],
      "name": "fishing",
      "outputs": [],
      "payable": false,
      "stateMutability": "nonpayable",
      "type": "function"
    },
    {
      "constant": false,
      "inputs": [],
      "name": "sleep",
      "outputs": [],
      "payable": false,
      "stateMutability": "nonpayable",
      "type": "function"
    },
    {
      "constant": false,
      "inputs": [],
      "name": "eat",
      "outputs": [],
      "payable": false,
      "stateMutability": "nonpayable",
      "type": "function"
    },
    {
      "constant": false,
      "inputs": [],
      "name": "sports",
      "outputs": [],
      "payable": false,
      "stateMutability": "nonpayable",
      "type": "function"
    },
    {
      "constant": false,
      "inputs": [],
      "name": "playwith",
      "outputs": [],
      "payable": false,
      "stateMutability": "nonpayable",
      "type": "function"
    },
    {
      "constant": false,
      "inputs": [],
      "name": "grow",
      "outputs": [],
      "payable": false,
      "stateMutability": "nonpayable",
      "type": "function"
    },
    {
      "constant": false,
      "inputs": [],
      "name": "kill",
      "outputs": [],
      "payable": false,
      "stateMutability": "nonpayable",
      "type": "function"
    }
  ],
  "bytecode": "0x606060405234156200001057600080fd5b604051620010e1380380620010e1833981016040528080518201919050508060009080519060200190620000469291906200015c565b5033600160006101000a81548173ffffffffffffffffffffffffffffffffffffffff021916908373ffffffffffffffffffffffffffffffffffffffff16021790555060c06040519081016040528060148152602001601e8152602001600181526020016064815260200160006002811115620000be57fe5b815260200160006001811115620000d157fe5b81525060026000820151816000015560208201518160010155604082015181600201556060820151816003015560808201518160040160006101000a81548160ff021916908360028111156200012357fe5b021790555060a08201518160040160016101000a81548160ff021916908360018111156200014d57fe5b0217905550905050506200020b565b828054600181600116156101000203166002900490600052602060002090601f016020900481019282601f106200019f57805160ff1916838001178555620001d0565b82800160010185558215620001d0579182015b82811115620001cf578251825591602001919060010190620001b2565b5b509050620001df9190620001e3565b5090565b6200020891905b8082111562000204576000816000905550600101620001ea565b5090565b90565b610ec6806200021b6000396000f300606060405260043610610112576000357c0100000000000000000000000000000000000000000000000000000000900463ffffffff168063133a473e146101175780632b2a25191461012c578063340a2a4e1461014157806341c0e1b51461015657806352446f531461016b5780635298948e146101945780635ea5cabe146101a9578063702a442d14610237578063750c1cd11461025d5780637a3c959c146102865780638da5cb5b1461031457806393e1ea4114610369578063958b37f9146103d1578063ac2833111461045f578063b77d4d4814610474578063c040622614610489578063e445c1e51461049e578063f4ec9aa9146104c7578063fe21e487146104f0578063ff80f22f14610505575b600080fd5b341561012257600080fd5b61012a610593565b005b341561013757600080fd5b61013f610623565b005b341561014c57600080fd5b6101546106c7565b005b341561016157600080fd5b610169610757565b005b341561017657600080fd5b61017e6107ee565b6040518082815260200191505060405180910390f35b341561019f57600080fd5b6101a76107fa565b005b34156101b457600080fd5b6101bc610893565b6040518080602001828103825283818151815260200191508051906020019080838360005b838110156101fc5780820151818401526020810190506101e1565b50505050905090810190601f1680156102295780820380516001836020036101000a031916815260200191505b509250505060405180910390f35b341561024257600080fd5b61025b600480803560ff1690602001909190505061093b565b005b341561026857600080fd5b610270610964565b6040518082815260200191505060405180910390f35b341561029157600080fd5b610299610971565b6040518080602001828103825283818151815260200191508051906020019080838360005b838110156102d95780820151818401526020810190506102be565b50505050905090810190601f1680156103065780820380516001836020036101000a031916815260200191505b509250505060405180910390f35b341561031f57600080fd5b610327610ac6565b604051808273ffffffffffffffffffffffffffffffffffffffff1673ffffffffffffffffffffffffffffffffffffffff16815260200191505060405180910390f35b341561037457600080fd5b61037c610aec565b604051808781526020018681526020018581526020018481526020018360028111156103a457fe5b60ff1681526020018260018111156103b857fe5b60ff168152602001965050505050505060405180910390f35b34156103dc57600080fd5b6103e4610b30565b6040518080602001828103825283818151815260200191508051906020019080838360005b83811015610424578082015181840152602081019050610409565b50505050905090810190601f1680156104515780820380516001836020036101000a031916815260200191505b509250505060405180910390f35b341561046a57600080fd5b610472610bce565b005b341561047f57600080fd5b610487610c11565b005b341561049457600080fd5b61049c610c8d565b005b34156104a957600080fd5b6104b1610d09565b6040518082815260200191505060405180910390f35b34156104d257600080fd5b6104da610d16565b6040518082815260200191505060405180910390f35b34156104fb57600080fd5b610503610d23565b005b341561051057600080fd5b610518610d9f565b6040518080602001828103825283818151815260200191508051906020019080838360005b8381101561055857808201518184015260208101905061053d565b50505050905090810190601f1680156105855780820380516001836020036101000a031916815260200191505b509250505060405180910390f35b600160009054906101000a900473ffffffffffffffffffffffffffffffffffffffff1673ffffffffffffffffffffffffffffffffffffffff163373ffffffffffffffffffffffffffffffffffffffff161415156105ef57600080fd5b6105f9600261093b565b60056002600301600082825401925050819055506001600260010160008282540192505081905550565b600160009054906101000a900473ffffffffffffffffffffffffffffffffffffffff1673ffffffffffffffffffffffffffffffffffffffff163373ffffffffffffffffffffffffffffffffffffffff1614151561067f57600080fd5b610689600061093b565b600560026003016000828254019250508190555060016002600101600082825403925050819055506001600260000160008282540192505081905550565b600160009054906101000a900473ffffffffffffffffffffffffffffffffffffffff1673ffffffffffffffffffffffffffffffffffffffff163373ffffffffffffffffffffffffffffffffffffffff1614151561072357600080fd5b61072d600061093b565b60056002600301600082825401925050819055506001600260010160008282540192505081905550565b600160009054906101000a900473ffffffffffffffffffffffffffffffffffffffff1673ffffffffffffffffffffffffffffffffffffffff163373ffffffffffffffffffffffffffffffffffffffff161415156107b357600080fd5b600160009054906101000a900473ffffffffffffffffffffffffffffffffffffffff1673ffffffffffffffffffffffffffffffffffffffff16ff5b60006002800154905090565b600160009054906101000a900473ffffffffffffffffffffffffffffffffffffffff1673ffffffffffffffffffffffffffffffffffffffff163373ffffffffffffffffffffffffffffffffffffffff1614151561085657600080fd5b6001600280016000828254019250508190555060016002600101600082825401925050819055506001600260000160008282540192505081905550565b61089b610e86565b60008054600181600116156101000203166002900480601f0160208091040260200160405190810160405280929190818152602001828054600181600116156101000203166002900480156109315780601f1061090657610100808354040283529160200191610931565b820191906000526020600020905b81548152906001019060200180831161091457829003601f168201915b5050505050905090565b80600260040160006101000a81548160ff0219169083600281111561095c57fe5b021790555050565b6000600260030154905090565b610979610e86565b6000600281111561098657fe5b600260040160009054906101000a900460ff1660028111156109a457fe5b14156109e7576040805190810160405280600581526020017f68617070790000000000000000000000000000000000000000000000000000008152509050610ac3565b600160028111156109f457fe5b600260040160009054906101000a900460ff166002811115610a1257fe5b1415610a55576040805190810160405280600381526020017f73616400000000000000000000000000000000000000000000000000000000008152509050610ac3565b600280811115610a6157fe5b600260040160009054906101000a900460ff166002811115610a7f57fe5b1415610ac2576040805190810160405280600681526020017f6e6f726d616c00000000000000000000000000000000000000000000000000008152509050610ac3565b5b90565b600160009054906101000a900473ffffffffffffffffffffffffffffffffffffffff1681565b60028060000154908060010154908060020154908060030154908060040160009054906101000a900460ff16908060040160019054906101000a900460ff16905086565b60008054600181600116156101000203166002900480601f016020809104026020016040519081016040528092919081815260200182805460018160011615610100020316600290048015610bc65780601f10610b9b57610100808354040283529160200191610bc6565b820191906000526020600020905b815481529060010190602001808311610ba957829003601f168201915b505050505081565b33600160006101000a81548173ffffffffffffffffffffffffffffffffffffffff021916908373ffffffffffffffffffffffffffffffffffffffff160217905550565b600160009054906101000a900473ffffffffffffffffffffffffffffffffffffffff1673ffffffffffffffffffffffffffffffffffffffff163373ffffffffffffffffffffffffffffffffffffffff16141515610c6d57600080fd5b610c77600061093b565b6005600260030160008282540392505081905550565b600160009054906101000a900473ffffffffffffffffffffffffffffffffffffffff1673ffffffffffffffffffffffffffffffffffffffff163373ffffffffffffffffffffffffffffffffffffffff16141515610ce957600080fd5b610cf3600061093b565b6005600260030160008282540392505081905550565b6000600260010154905090565b6000600260000154905090565b600160009054906101000a900473ffffffffffffffffffffffffffffffffffffffff1673ffffffffffffffffffffffffffffffffffffffff163373ffffffffffffffffffffffffffffffffffffffff16141515610d7f57600080fd5b610d89600061093b565b6005600260030160008282540392505081905550565b610da7610e86565b60006001811115610db457fe5b600260040160019054906101000a900460ff166001811115610dd257fe5b1415610e15576040805190810160405280600381526020017f72616400000000000000000000000000000000000000000000000000000000008152509050610e83565b600180811115610e2157fe5b600260040160019054906101000a900460ff166001811115610e3f57fe5b1415610e82576040805190810160405280600581526020017f477265656e0000000000000000000000000000000000000000000000000000008152509050610e83565b5b90565b6020604051908101604052806000815250905600a165627a7a7230582072104a006e4fe8f60f12910f78d02a62cb54ad9844f0dada5c8e23311c0d74370029",
  "source": "pragma solidity ^0.4.18;\n/**\n * A Cat smart contract demo\n */\ncontract Cat {\n\n\tstring public catName;\n\taddress public owner;\n\n\tenum Color { Red, Green }\n\tenum Emotion { happy, sad, normal}\n\t\n\n\tstruct Attributes {\n\t\tuint height;\n\t\tuint weight;\n\t\tuint age;\n\t\tuint energypoint;\n\n\t\tEmotion emotion;\n\t\tColor color;\n\t}\n\t\n\tAttributes public attributes;\n\n\t// mapping (address => attributes) catAttributes;\n\t\n\n\tfunction Cat(string _name) public {\n\n\t\tcatName = _name;\n\t\towner = msg.sender;\n\n\t\t// attributes.height = 20;\n\t\t// attributes.weight = 30;\n\t\t// attributes.age = 1;\n\t\t// attributes.energypoint = 100;\n\n        attributes = Attributes({\n\n\t        height : 20,\n\t        weight : 30,\n\t        age : 1,\n\t\t    energypoint : 100,\n\t\t    emotion : Emotion.happy,\n\t\t    color : Color.Red\n\n\t    });\n\t}\n\n\tfunction BuytheCat() public {\n\n\t\towner = msg.sender;\n\n\t}\n\n\t// function randomEmotion () public {\n\n\t// }\n\n\t// function returnAttirbutes() public view returns (string[]){\n\n\t// \tstring[] str;\n\t// \tstr.push(string(catName));\n\t// \tstr.push(string(attributes.height));\n\t// \tstr.push(string(attributes.weight));\n\t// \tstr.push(string(attributes.age));\n\t// \tstr.push(string(attributes.energypoint));\n\t// \tstr.push(string(attributes.emotion));\n\t// \tstr.push(string(attributes.color));\n\t// \treturn str;\n\t// }\n\n\tfunction returnName () public view returns  (string) {\n\n\t\treturn catName;\n\n\t}\n\n\tfunction returnHeight () public view returns (uint) {\n\n\t\treturn attributes.height;\n\n\t}\n\n\tfunction returnWeight () public view returns (uint) {\n\n\t\treturn attributes.weight;\n\n\t}\n\n\tfunction returnAge () public view returns (uint) {\n\n\t\treturn attributes.age;\n\n\t}\n\n\tfunction returnEnergypoint () public view returns (uint) {\n\n\t\treturn attributes.energypoint;\n\n\t}\n\n\tfunction returnEmotion () public view returns (string) {\n\n\t\tif(attributes.emotion == Emotion.happy){\n\t\t\treturn \"happy\";\n\t\t}\n\t\tif(attributes.emotion == Emotion.sad){\n\t\t\treturn \"sad\";\n\t\t}\n\t\tif(attributes.emotion == Emotion.normal){\n\t\t\treturn \"normal\";\n\t\t}\n\n\t}\n\n\tfunction returnColor () public view returns (string) {\n\n\t\tif(attributes.color == Color.Red){\n\t\t\treturn \"rad\";\n\t\t}\n\t\tif(attributes.color == Color.Green){\n\t\t\treturn \"Green\";\n\t\t}\n\n\t}\n\n\n\n\n\tfunction changeEmotion (Emotion _emotion) public {\n\n\t\tattributes.emotion = _emotion;\n\n\t}\n\t\n\n\n\tmodifier onlyOwner { \n\n\t\t// only the owner can playwith the cat\n\t\trequire (msg.sender == owner);\n\n\t\t// back to the origin codes\n\t\t_;\n\n\t}\n\n\tfunction run () onlyOwner public {\n\n\t\tchangeEmotion (Emotion.happy);\n\t\tattributes.energypoint -= 5;\n\n\t}\n\t\n\tfunction fishing () onlyOwner public {\n\n\t\tchangeEmotion (Emotion.happy);\n\t\tattributes.energypoint -= 5;\n\n\t}\n\n\tfunction sleep () onlyOwner public {\n\n\t\tchangeEmotion (Emotion.normal);\n\t\tattributes.energypoint += 5;\n\t\tattributes.weight += 1;\n\n\t}\n\n\tfunction eat () onlyOwner public {\n\n\t\tchangeEmotion (Emotion.happy);\n\t\tattributes.energypoint += 5;\n\t\tattributes.weight += 1;\n\n\t}\n\n\tfunction sports () onlyOwner public {\n\n\t\tchangeEmotion (Emotion.happy);\n\t\tattributes.energypoint -= 5;\n\n\t}\n\n\tfunction playwith () onlyOwner public {\n\n\t\tchangeEmotion (Emotion.happy);\n\t\tattributes.energypoint += 5;\n\t\tattributes.weight -= 1;\n\t\tattributes.height += 1;\n\n\t}\n\t\n// \tfunction randomEmotion () public pure returns (Emotion) {\n//         uint random = uint(sha3(owner));\n// \t\treturn Emotion(random); \n\n// \t}\n\n\tfunction grow () onlyOwner public {\n\n\t\tattributes.age += 1;\n\t\tattributes.weight += 1;\n\t\tattributes.height += 1;\n\n\t}\n\n// \tfunction CatsInteract (address _cat2address) public {\n// \t\trequire (owner != _cat2address);\n\n// \t\tCat cat2 = Cat(_cat2address);\n// \t\t// to interact with other cats\n\t\t\n// \t}\n\t\n\n\t// end up the smart contract\n\tfunction kill() onlyOwner public {\n\t\tselfdestruct(owner);\n\n\t}\n}\n",
  "sourcePath": "/Users/allen/Documents/eth/Cat/contracts/cat.sol",
  "compiler": {
    "name": "solc",
    "version": "0.4.21+commit.dfe3193c.Emscripten.clang"
  },
  "schemaVersion": "2.0.0",
  "updatedAt": "2018-04-04T23:52:29.236Z"
}